:020000040000FA
:1000000083128501860183168E158E100E148030A2
:10001000810000308B008501860105118611851451
:1000200085150516831207309F000030A3001B20A2
:10003000051E292017288519080099208519080010
:10004000851808003120851808008A2039200511FC
:1000500008009920051A0800231C47202318352082
:10006000080006164B200612080006166C20061221
:10007000080005157D207D207D207D207D207D20B0
:100080007D207D207D207D207D207D2008000515A0
:100090005B20051108000030A3006630A000C230CC
:1000A000A1001230A200A00B5328A10B5328A20BD1
:1000B0005328000008000130A3006630A000C230C1
:1000C000A1001530A200A00B6328A10B6328A20B8E
:1000D00063280000051117280030A3006630A00037
:1000E000C230A1001530A200A00B7428A10B742807
:1000F000A20B7428000006121728C830A0003C305C
:10010000A1000630A200A00B8328A10B8328A20B1C
:1001100083280800AD30A0001330A1000630A200F3
:10012000A00B9028A10B9028A20B902800000000A3
:100130000800EE30A0004130A100A00B9D28A10BCB
:060140009D2800000800EC
:04014600003400344D
:02400E001000A0
:00000001FF
