:020000040000FA
:02000000F22BE1
:1002B6005034B534503483121F142730A100F53062
:1002C600A000A00B6429A10B642983129F146B293B
:1002D6009F186E296F296B2970291E08A000A1019D
:1002E6002008A6002108A7001F10080083121F146B
:1002F6000430A100E430A000A00B7F29A10B7F29C8
:10030600000042308312A000A00B87290000831250
:100316009F148D299F18902991298D2992291E08AD
:10032600A000A1012008A6002108A7001F100800B0
:100336008312A801A90100302902143003192802EA
:10034600031CA629A729A929C029C02905150330F8
:10035600A000A00BAC29AF29831205110130A80714
:100366000318A90A0030A90700302902143003191E
:100376002802031CBF29C029A9290511C730A000DE
:10038600A00BC329C62908008312A801A9010030C1
:100396002902283003192802031CD229D329D5297A
:1003A600EC29EC2905150330A000A00BD829DB2980
:1003B600831205110130A8070318A90A0030A907FE
:1003C60000302902283003192802031CEB29EC29E6
:1003D600D5290511C730A000A00BEF29F229080086
:1003E6008312A801A90100302902503003192802FE
:1003F600031CFE29FF29012A182A182A051503308D
:10040600A000A00B042A072A831205110130A807B1
:100416000318A90A0030A907003029025030031931
:100426002802031C172A182A012A0511C730A00022
:10043600A00B1B2A1E2A08008312A400F3210830F1
:100446008312A3002308AA004F2A0130AA02013012
:10045600A3002A0A302A0310A30DFF3E031D2E2AED
:1004660023082D05031D382A392A3B2A9B214F2AAA
:1004760001308312A3002A0A422A0310A30DFF3E6D
:10048600031D402A23082D0503194A2A4B2A4F2A01
:10049600C7214F2A4F2A4F2A83122A082402031CF7
:1004A600552A562A282A572A0830A3002308AA00C4
:1004B600832A0130AA020130A3002A0A642A031003
:1004C600A30DFF3E031D622A23082C05031D6C2A7B
:1004D6006D2A6F2A9B21832A01308312A3002A0AE0
:1004E600762A0310A30DFF3E031D742A23082C054C
:1004F60003197E2A7F2A832AC721832A832A832AED
:1005060083122A082102031C892A8A2A5C2A8B2A3A
:100516000830A3002308AA00B72A0130AA02013036
:10052600A3002A0A982A0310A30DFF3E031D962A4C
:1005360023082B05031DA02AA12AA32A9B21B72A3B
:1005460001308312A3002A0AAA2A0310A30DFF3E34
:10055600031DA82A23082B050319B22AB32AB72A92
:10056600C721B72AB72AB72A83122A082202031CF0
:10057600BD2ABE2A902ABF2A08001030831685009D
:100586000730831299000C309F00783083169F0045
:100596008330810040308B000C17D12A5E21003059
:1005A60083122702FD30031926020318DB2ADC2AF0
:1005B6000B2B00302702F53003192602031CE42A10
:1005C600E52A0B2B7921003083122702FD3003190F
:1005D60026020318EF2AF02A0B2B00302702F530EB
:1005E60003192602031CF82AF92A0B2B6230A500F0
:1005F6002508AD004230A5002508AC00A101A10ADE
:100606000830A5002508A20000301F220B2B0B2B5B
:10061600003083122702F430031926020318142B24
:10062600152B442B00302702ED3003192602031C3C
:100636001D2B1E2B442B7921003083122702F43008
:10064600031926020318282B292B442B00302702D6
:10065600ED3003192602031C312B322B442B2C3090
:10066600A5002508AD004230A5002508AC00A10173
:10067600A10A0830A5002508A20000301F22442B3D
:10068600442B003083122702EC300319260203188C
:100696004D2B4E2B7D2B00302702D030031926021E
:1006A600031C562B572B7D2B7921003083122702F2
:1006B600EC30031926020318612B622B7D2B0030C8
:1006C6002702D03003192602031C6A2B6B2B7D2BC5
:1006D6008230A5002508AD004230A5002508AC00F3
:1006E600AB01A1010430A5002508A20000301F229D
:1006F6007D2B7D2B003083122702CF300319260273
:100706000318862B872BB62B003027025630031989
:100716002602031C8F2B902BB62B792100308312D7
:100726002702CF300319260203189A2B9B2BB62BD0
:1007360000302702563003192602031CA32BA42BD4
:10074600B62B4830A5002508AD004230A500250887
:10075600AC00A101A10A0830A5002508A2000030BE
:100766001F22B62BB62B00308312270255300319F1
:1007760026020318BF2BC02BD12A003027020330D4
:1007860003192602031CC82BC92BD12A7921003054
:10079600831227025530031926020318D32BD42BB4
:1007A600D12A00302702033003192602031CDC2B52
:1007B600DD2BD12AC830A5002508AD004230A500A2
:1007C6002508AC00A101A10A0830A5002508A20051
:1007D60000301F22D12AD12AD12AD12A00285B2112
:1007E600AB005C21AC005D21AD00A601A701A8010C
:0807F600A901AA018301C02A38
:02400E0014306C
:00000001FF
