:020000040000FA
:1000000083128501860183168E158E100E148030A2
:1000100081008601850185140511051506148614D5
:100020000615051005138513861106128612061390
:100030008613831207309F00051D32281C28850176
:1000400086011C2806120617A6208616D020061C3C
:10005000952086120616061786181F288612061681
:1000600006172C28EE30A0004130A100A00B362846
:10007000A10B36280000051D32285530A0008A301B
:10008000A1000330A200051D4E28A00B4328A10BA0
:100090004528A20B4528000000001C28EE30A000D7
:1000A0004130A100A00B5228A10B52280000051DD1
:1000B0004E285530A0008A30A1000330A200051D53
:1000C0002228A00B5F28A10B6128A20B6128000049
:1000D00000001C28EE30A0004130A100A00B6E28CB
:1000E000A10B6E280000051D6A285530A0008A303B
:1000F000A1000330A200051D2228A00B7B28A10B24
:100100007D28A20B7D28000000001C285530A0008F
:100110008A30A1000330A200A00B8C28A10B8C28F0
:10012000A20B8C280000000008000230A00007305D
:10013000A1000930A20006180800A00B9B28A10B03
:100140009D28A20B9D280000000008004930A00057
:100150009930A1000730A200A00BAC28A10BAC285D
:10016000A20BAC2808000D30A0003930A1001030DF
:10017000A200A00BB928A10BB928A20BB928000036
:1001800000000800BA30A0000430A1000230A20034
:10019000A00BC828A10BC828A20BC8280000080083
:1001A0004B30A000B130A1000330A200A00BD62834
:0E01B000A10BD628A20BD628000000000800E4
:0201BE0000340B
:0201C000003409
:02400E001000A0
:00000001FF
