:020000040000FA
:02000000F12BE2
:10003C0050345034B53483121F142730A700F530D8
:10004C00A600A60B2728A70B272883129F142E285F
:10005C009F18312832282E2833281E08A600A70105
:10006C002608A0002708A1001F10080083121F14E7
:10007C000430A700E430A600A60B4228A70B4228A8
:10008C00000042308312A600A60B4A2800008312FF
:10009C009F1450289F1853285428502855281E0860
:1000AC00A600A7012608A0002708A1001F10080021
:1000BC008312A201A3010030230213300319220280
:1000CC00031C69286A286C288228822805150330AD
:1000DC00A600A60B6F28831205110130A207031886
:1000EC00A30A0030A30700302302133003192202A5
:1000FC00031C812882286C2805119530A600A60BBC
:10010C008528882808008312A201A301003023024D
:10011C00133003192202031C942895289728AD2824
:10012C00AD2805150330A600A60B9A2883120511DD
:10013C000130A2070318A30A0030A30700302302E2
:10014C00133003192202031CAC28AD289728051183
:10015C00EB30A600B128B228A60BB028B528B628DB
:10016C0008008312A201A301013023022C300319D1
:10017C002202031CC228C328C528DB28DB2805154E
:10018C000330A600A60BC828831205110130A20764
:10019C000318A30A0030A307013023022C300319E3
:1001AC002202031CDA28DB28C52805110630A7001B
:1001BC00D730A600A60BE028A70BE0280800B72034
:1001CC0008308312A8002808A40013290130A402C7
:1001DC000130A800240AF4280310A80DFF3E031DCB
:1001EC00F22828082D05031DFC28FD28FF285E2079
:1001FC00132901308312A800240A06290310A80D24
:10020C00FF3E031D042928082D0503190E290F296B
:10021C001329892013291329132983122408031D58
:10022C0018291929EC28AD090830A8002808A400C1
:10023C0046290130A4020130A800240A2729031002
:10024C00A80DFF3E031D252928082D05031D2F2968
:10025C00302932295E20462901308312A800240A55
:10026C0039290310A80DFF3E031D372928082D0539
:10027C00031941294229462989204629462946291C
:10028C0083122408031D4B294C291F29AD09083062
:10029C00A8002808A40079290130A4020130A80084
:1002AC00240A5A290310A80DFF3E031D58292808BB
:1002BC002C05031D6229632965295E2079290130EB
:1002CC008312A800240A6C290310A80DFF3E031DFD
:1002DC006A2928082C05031974297529792989207C
:1002EC0079297929792983122408031D7E297F29EC
:1002FC005229AC090830A8002808A400AC29013008
:10030C00A4020130A800240A8D290310A80DFF3E79
:10031C00031D8B2928082C05031D9529962998293E
:10032C005E20AC2901308312A800240A9F290310F7
:10033C00A80DFF3E031D9D2928082C050319A7298C
:10034C00A829AC298920AC29AC29AC298312240812
:10035C00031DB129B2298529B3295E208312AC096A
:10036C0008001030831685000730831299000C307A
:10037C009F00783083169F008330810040308B00C3
:10038C000C17C8292120003083122102FC300319DC
:10039C0020020318D229D329FB2900302102EC308A
:1003AC0003192002031CDB29DC29FB293C2000302B
:1003BC0083122102FC30031920020318E629E729D5
:1003CC00FB2900302102EC3003192002031CEF2919
:1003DC00F029FB29B530A9002908AD008230A9000D
:1003EC002908AC00E520FB29FB29003083122102EF
:1003FC00EB30031920020318042A052A692A00305D
:10040C002102D33003192002031C0D2A0E2A692A5B
:10041C003C20003083122102EB3003192002031818
:10042C00182A192A692A00302102D3300319200214
:10043C00031C212A222A692AB530A9002908AD00FB
:10044C00E930A9002908AC00E52026308312AA0067
:10045C00A830A900A90B302AAA0B302A0000F530CD
:10046C008312A9002908AD00CC30A9002908AC00E2
:10047C00E5202D308312AA002630A900A90B442AAE
:10048C00AA0B442A0000B5308312A9002908AD003C
:10049C009830A9002908AC00E52026308312AA0068
:1004AC00A830A900A90B582AAA0B582A0000F5302D
:1004BC008312A9002908AD000C30A9002908AC0052
:1004CC00E520692A692A003083122102D2300319EF
:1004DC0020020318722A732AC22A00302102C93062
:1004EC0003192002031C7B2A7C2AC22A3C200030E0
:1004FC0083122102D230031920020318862A872A7C
:10050C00C22A00302102C93003192002031C8F2A91
:10051C00902AC22AB530A9002908AD00E930A900FB
:10052C002908AC00E52026308312AA00A830A900C7
:10053C00A90B9E2AAA0B9E2A0000F5308312A90053
:10054C002908AD004C30A9002908AC00E5202D305D
:10055C008312AA002630A900A90BB22AAA0BB22A30
:10056C000000B5308312A9002908AD001A30A9008B
:10057C002908AC00E520C22A003083122102C830C1
:10058C00031920020318CB2ACC2AF42A00302102AA
:10059C00BE3003192002031CD42AD52AF42A3C208D
:1005AC00003083122102C830031920020318DF2AFD
:1005BC00E02AF42A00302102BE3003192002031C69
:1005CC00E82AE92AF42AB530A9002908AD005830E8
:1005DC00A9002908AC00E520F42AF42A0030831283
:1005EC002102BD30031920020318FD2AFE2A262BF6
:1005FC0000302102B03003192002031C062B072BFC
:10060C00262B3C20003083122102BD30031920021E
:10061C000318112B122B262B00302102B03003199A
:10062C002002031C1A2B1B2B262BB530A9002908E2
:10063C00AD004230A9002908AC00E520262B262B62
:10064C00003083122102AF300319200203182F2B24
:10065C00302B582B00302102A43003192002031C2C
:10066C00382B392B582B3C20003083122102AF3011
:10067C00031920020318432B442B582B0030210262
:10068C00A43003192002031C4C2B4D2B582BB530D6
:10069C00A9002908AD00C230A9002908AC00E5204A
:1006AC00582B582B003083122102A330031920023F
:1006BC000318612B622B8A2B003021029530031911
:1006CC002002031C6A2B6B2B8A2B3C2000308312DC
:1006DC002102A330031920020318752B762B8A2BC9
:1006EC0000302102953003192002031C7E2B7F2B36
:1006FC008A2BB530A9002908AD00D030A9002908F3
:10070C00AC00E5208A2B8A2B003083122102943016
:10071C00031920020318932B942BBC2B00302102BD
:10072C00473003192002031C9C2B9D2BBC2B3C2017
:10073C000030831221029430031920020318A72BD6
:10074C00A82BBC2B00302102473003192002031CBC
:10075C00B02BB12BBC2BB530A9002908AD00503003
:10076C00A9002908AC00E520BC2BBC2B003083125F
:10077C0021024630031920020318C52BC62BC829A9
:10078C0000302102023003192002031CCE2BCF2B88
:10079C00C8293C2000308312210246300319200264
:1007AC000318D92BDA2BC829003021020230031987
:1007BC002002031CE22BE32BC829B530A900290821
:1007CC00AD000230A9002908AC00E520C829C829D1
:1007DC00C829C82900281E20AB001F20AC002020EF
:1007EC00AD00A001A101A201A301A401A5018301F7
:0207FC00B7291B
:02400E0014306C
:00000001FF
