:020000040000FA
:100000000128831285010730990083160511051612
:100010008316FF23900083128B131F149F151F1547
:1000200083169F011F169F1583121F139F13FC3009
:10003000A500EB30A600EB30A700D230A800D230EC
:10004000C000C830C100C830A900BD30AA00BD3012
:10005000AB00AF30AC00AF30AD00A330AE00A3308A
:10006000B8009430B9009430BA004630BB00463036
:10007000BC000130BD003E2052203B289F149F1839
:100080003F281E08A40083161E088312A300AB306D
:10009000B2001930B300B20B4B28B30B4B28000051
:1000A0000000080025082402031C772027082402EA
:1000B000031C7C2040082402031C81202908240200
:1000C000031C86202B082402031C8B202D082402ED
:1000D000031C902038082402031C95203A082402AF
:1000E000031C9A203C082402031C9F2008002608B9
:1000F00024020318B3200800280824020318AB20A8
:100100000800410824020318AF2008002A0824022E
:100110000318B52108002C0824020318DD2108006B
:100120002E082402031806220800390824020318A6
:100130002E2208003B0824020318562208003D081E
:100140002402031876220800BF00BE01BE0BA628B9
:10015000BF0BA6280800DB20ED220C2108005C2143
:10016000ED228D210800A422A422A422C122A422CF
:10017000C122A422A422C122A422C122A422C122DB
:10018000A422A422C122A422A422C122A422C122E8
:10019000A422C122A422C122A422A422C122A422D8
:1001A000C122A422C122A422C122A422C122A422AB
:1001B000A422C1220800A422A422A422C122A42293
:1001C000A422C122A422C122A422C122A422C1228B
:1001D000A422C122A422C122A422A422C122A42298
:1001E000C122A422C122A422A422C122A422C1226B
:1001F000A422C122A422C122A422C122A422A42278
:10020000C122A422C122A422C122A422C122A4224A
:10021000C122A422C1220800A422A422A422C12215
:10022000A422A422C122A422C122A422A422C12247
:10023000A422C122A422C122A422C122A422A42237
:10024000C122A422C122A422C122A422A422C1220A
:10025000A422C122A422C122A422C122A422C122FA
:10026000A422A422C1220800A422A422A422C122E2
:10027000A422A422C122A422C122A422A422C122F7
:10028000A422C122A422C122A422C122A422A422E7
:10029000C122A422C122A422C122A422A422C122BA
:1002A000A422C122A422C122A422C122A422C122AA
:1002B000A422A422C1220800A422A422A422C12292
:1002C000A422A422C122A422C122A422C122A422A7
:1002D000C122A422C122A422C122A422A422C1227A
:1002E000A422C122A422C122A422A422C122A42287
:1002F000C122A422C122A422C122A422C122A4225A
:10030000A422C122A422C122A422C122A422C12249
:10031000A422C122A422C1220800A422A422A42231
:10032000C122A422A422C122A422C122A422A42246
:10033000C122A422C122A422C122A422C122A42219
:10034000A422C122A422C122A422C122A422A42226
:10035000C122A422C122A422C122A422C122A422F9
:10036000C122A422A422C1220800A422A422A422E1
:10037000C122A422C122A422A422C122A422A422F6
:10038000C122A422C122A422C122A422C122A422C9
:10039000A422C122A422C122A422C122A422A422D6
:1003A000C122A422C122A422C122A422C122A422A9
:1003B000C122A422A422C1220800A422A422A42291
:1003C000C122A422A422C122A422C122A422A422A6
:1003D000C122A422C122A422A422C122A422A42296
:1003E000C122A422C122A422C122A422C122A42269
:1003F000A422C122A422C122A422C122A422C12259
:10040000A422C122A422A422C1220800A422A42240
:10041000A422C122A422C122A422C122A422A42255
:10042000C122A422C122A422A422C122A422A42245
:10043000C122A422C122A422C122A422C122A42218
:10044000A422C122A422C122A422C122A422C12208
:10045000A422C122A422A422C1220800A422A422F0
:10046000A422C122A422A422C122A422A422C12205
:10047000A422C122A422C122A422A422C122A422F5
:10048000C122A422C122A422C122A422C122A422C8
:10049000A422C122A422C122A422C122A422C122B8
:1004A000A422C122A422A422C1220800A422A422A0
:1004B000A422C122A422C122A422A422C122A422B5
:1004C000C122A422C122A422A422C122A422C12288
:1004D000A422C122A422C122A422C122A422C12278
:1004E000A422C122A422A422C1220800A422A42260
:1004F000A422C122A422A422C122A422A422C12275
:10050000A422C122A422C122A422A422C122A42264
:10051000A422C122A422C122A422C122A422C12237
:10052000A422A422C122A422C122A422C122A42244
:10053000C122A422C122A422A422C1220800A422F2
:10054000C1222030A42008001930B2000515000097
:10055000000000000000000000000000000000009B
:100560000000000000000511000000000000000075
:10057000000000000000000000000000B20BA62AEE
:1005800008001C30B200051100000000000000004F
:10059000000000000000000000000000000000005B
:1005A0000511000000000000000000000000000035
:1005B000000000000000B20BC32A0800A930B200FE
:1005C0004530B3000230B400B20BE42AB30BE42A86
:1005D000B40BE42A000000000800A830B200263066
:0E05E000B300B20BF12AB30BF12A00000800A1
:0205EE000034D7
:0205F0000034D5
:02400E0054005C
:00000001FF
