:100000001BC0FAC151C1F8C1F7C1F6C1F5C1F4C1B5
:10001000F3C1F2C156C060C06FC07EC08DC09CC02D
:10002000A4C049C0CBC041C03AC004C10062006353
:100030000003FA006000628011241FBECFE9CDBF2B
:10004000ECE2F0E040E0B591A59135912591059164
:1000500007FD0CC095918591EF01F92FE82F0590D0
:100060000D92A217B307D9F7FE0104C01D92A21783
:10007000B307E1F7E833F40731F769D100C0F8942A
:02008000FFCFB0
:100082000F93E09162008E2F90E0FC013197EC30EB
:10009200F10508F0D0C0E65FFF4F0994809161003E
:1000A200863008F4ABC0B6C080916100833008F49A
:1000B2008DC09BC080916100883008F45EC06EC024
:1000C20020E041E060E086E21FD121E040E060E014
:1000D20086E21AD1B0C001E020E041E066E286E2A9
:1000E200ACD08EE676D121E040E066E286E2A5D091
:1000F2008EE66FD1A0C002E020E041E066E286E237
:100102009CD08EE666D121E040E066E286E295D0A0
:100112008EE65FD190C003E020E041E066E286E235
:100122008CD08EE656D121E040E066E286E285D0B0
:100132008EE64FD180C004E020E041E066E286E234
:100142007CD08EE646D121E040E066E286E275D0C0
:100152008EE63FD170C001E021E041E066E286E236
:100162006CD08FEF36D167C003E021E041E066E258
:1001720086E263D08FEF2DD15EC021E041E066E2DE
:1001820086E2C2D021E041E066E286E2BDD0809103
:1001920061008F5F80936100883078F3883009F0C6
:1001A2004AC08FEF16D181E914D183E088BB8091D8
:1001B20061008F5F809361003EC006E021E041E074
:1001C20066E286E23AD08FEF04D135C002E021E048
:1001D20041E066E286E231D08FEFFBD08091610090
:1001E2008F5F80936100833088F3833021F588BB71
:1001F200809161008F5F809361001DC021E041E02A
:1002020066E286E281D0809161008F5F8093610017
:100212008630A0F3863079F418BA8FEFDAD081E90C
:10022200D8D083E088BB809161008F5F80936100AA
:0A02320002C083E088BB0F9108951D
:10023C00FF920F931F93CF93DF93182FF62EC42F9B
:10024C00D22F10926000C130E1F4C09AD13081F409
:10025C00C19A812FA4D0C130B9F0C1988F2D9FD0F5
:10026C00809160008F5F80936000081760F710C06A
:10027C00812F95D0C13091F709C0C19A812F8FD0B1
:10028C00ECCFD130A9F7F9CFC098E7CFC098E6CF23
:0C029C00DF91CF911F910F91FF9008950A
:1002A8001F920F920FB60F9211242F933F934F93E3
:1002B8005F936F937F938F939F93AF93BF93EF93C6
:1002C800FF938BE383D0B2990BC0809162008F5F5C
:1002D8008093620018BA10926100B29BFECF6CD076
:1002E800FF91EF91BF91AF919F918F917F916F9106
:1002F8005F914F913F912F910F900FBE0F901F90DC
:02030800189546
:10030A00CF93DF93D62FC42F413091F4C09A213076
:10031A0041F4C19A45D0C13071F0C1988D2F40D0B7
:10032A000EC03ED0C130D1F708C0C19A39D0F5CF3E
:10033A002130B9F7FACFC098F0CFC098EFCFDF914C
:04034A00CF910895B2
:10034E0083E187BB83E086BD83E287B980EC86B903
:10035E0080E28BBF84E085BB85B7836085BF1FBC01
:10036E0085E083BF8FB780688FBF36D0C1E08091A4
:10037E00620081508C3010F0C09362007BDEF7CFAC
:10038E0082E090E020D0379A88E090E01CD0369A38
:0C039E0085B1869581BF86B186B90895AF
:1003AA0012BE92B79817E8F312BE92B79817E8F3FD
:0603BA008111E8DF089547
:1003C000E199FECF81E08EBB809162008DBBE29A05
:0403D000E19A089511
:1003D40012BE92B79817E8F312BE92B79817E8F3D3
:0203E40008957A
:1003E600E199FECF81E08EBBE09A8DB380936200E7
:0203F600089568
:0203F80003CE32
:0103FA000101
:00000001FF
