:020000040000FA
:100000000128831285010730990083160511051612
:100010008316FF23900083128B131F149F151F1547
:1000200083169F011F169F1583121F139F13FD3008
:10003000AB00F430AC00F430AD00EC30AE00EC308E
:10004000B700CF30B800CF30B9005530B0005530D0
:10005000BA000230BB002E2040202B289F149F188E
:100060002F281E08AA0083161E088312A900A53097
:10007000B1003330B200B10B3B28B20B3B28080073
:100080002B082A02031C55202D082A02031C5C2081
:1000900037082A02031C632039082A02031C6A203D
:1000A0003A082A02031C712008002C082A020318AF
:1000B00083201E30782008002E082A020318EA2028
:1000C0001E307820080038082A0203184F211E30FD
:1000D0007820080030082A020318B4211E30782046
:1000E00008003B082A02031819221E307820080055
:1000F000BD00BC01BC0B7A28BD0B7A280800BC00EF
:10010000BC0B80280800B822F1227E229B229B2271
:100110009B227E229B227E229B227E229B229B224E
:100120009B227E229B229B229B227E229B229B2221
:100130009B227E229B227E229B229B229B227E222E
:100140009B227E229B229B229B227E229B229B2201
:100150009B227E229B227E229B227E229B227E222B
:100160009B229B229B227E229B227E229B229B22E1
:100170009B227E229B229B229B227E229B227E22EE
:100180009B227E229B229B229B227E229B227E22DE
:100190009B227E229B227E229B227E229B227E22EB
:1001A0009B229B229B227E229B229B229B227E22A1
:1001B0009B227E229B229B229B227E229B229B2291
:1001C0009B227E229B229B229B227E229B222030EE
:1001D00078200800B822F1227E229B229B229B22BB
:1001E0007E229B227E229B227E229B229B229B227E
:1001F0007E229B229B229B227E229B229B229B2251
:100200007E229B227E229B229B229B227E229B225D
:100210007E229B229B229B227E229B229B229B2230
:100220007E229B227E229B227E229B227E229B225A
:100230009B229B227E229B227E229B227E229B222D
:100240009B229B227E229B229B229B227E229B2200
:100250007E229B229B229B227E229B227E229B220D
:100260007E229B227E229B229B229B227E229B22FD
:100270007E229B227E229B229B229B227E229B22ED
:100280007E229B229B229B227E229B229B229B22C0
:100290007E229B229B229B227E229B220800B82248
:1002A000F1227E229B229B229B227E229B227E2267
:1002B0009B227E229B229B229B227E229B229B2290
:1002C0009B227E229B229B229B227E229B227E229D
:1002D0009B229B229B227E229B227E229B229B2270
:1002E0009B227E229B229B229B227E229B227E227D
:1002F0009B227E229B227E229B229B229B227E226D
:100300009B227E229B229B229B227E229B229B223F
:100310009B227E229B227E229B229B229B227E224C
:100320009B227E229B227E229B227E229B227E2259
:100330009B227E229B227E229B229B229B227E222C
:100340009B227E229B229B229B227E229B229B22FF
:100350009B227E229B229B229B227E229B229B22EF
:100360009B227E229B220800B822F1227E229B2221
:100370009B229B227E229B227E229B227E229B22EC
:100380009B229B227E229B229B229B227E229B22BF
:100390009B229B227E229B227E229B229B229B22AF
:1003A0007E229B227E229B229B229B227E229B22BC
:1003B0009B229B227E229B227E229B227E229B22AC
:1003C0007E229B229B229B227E229B227E229B229C
:1003D0007E229B227E229B229B229B227E229B228C
:1003E0007E229B229B229B227E229B227E229B227C
:1003F0007E229B227E229B229B229B227E229B226C
:100400009B229B227E229B227E229B229B229B223E
:100410007E229B227E229B229B229B227E229B224B
:100420009B229B227E229B229B229B227E229B221E
:100430000800B822F1227E229B229B229B227E2250
:100440009B227E229B227E229B229B229B227E221B
:100450009B229B229B227E229B229B229B227E22EE
:100460009B227E229B229B229B227E229B227E22FB
:100470009B229B229B227E229B229B229B227E22CE
:100480009B227E229B227E229B227E229B229B22DB
:100490009B227E229B227E229B229B229B227E22CB
:1004A0009B227E229B229B229B227E229B227E22BB
:1004B0009B229B229B227E229B227E229B227E22AB
:1004C0009B227E229B227E229B229B229B227E229B
:1004D0009B227E229B229B229B227E229B227E228B
:1004E0009B229B229B227E229B229B229B227E225E
:1004F0009B229B229B227E229B2208001430BC0060
:1005000005150000000000000000000000000000D1
:1005100000000000000000000000051100000000C5
:1005200000000000000000000000000000000000CB
:10053000BC0B802A08001430BC000511000000002C
:1005400000000000000000000000000000000000AB
:100550000000000005110000000000000000000085
:1005600000000000000000000000BC0B9D2A0800F5
:10057000C830BC00051500000000000000000000AD
:100580000000000000000000000000000000051155
:10059000000000000000000000000000000000005B
:1005A00000000000BC0BBA2A8430BC000515000016
:1005B000000000000000000000000000000000003B
:1005C0000000000000000511000000000000000015
:1005D000000000000000000000000000BC0BD62A54
:1005E0000800D730B1000630B200B10BF52AB20BCB
:0405F000F52A0800E0
:0405F400003400349B
:02400E0014009C
:00000001FF
