:020000040000FA
:100000000128831285010730990083160511051612
:100010008316FF23900083128B131F149F151F1547
:1000200083169F011F169F1583121F139F13F8300D
:10003000A500E430A600E430A700C830A800C8300E
:10004000A900B630AA00B630AB00AA30AC00AA3086
:10005000AD009D30AE009D30B8009230B9009230B6
:10006000BA004430BB004430BC000330BD003A202D
:100070004C2037289F149F183B281E08A400831685
:100080001E088312A300A530B2003330B300B20BB8
:100090004728B30B4728080025082402031C6D20BD
:1000A00027082402031C722029082402031C77203D
:1000B0002B082402031C7C202D082402031C812011
:1000C00038082402031C86203A082402031C8B20D3
:1000D0003C082402031C9020080026082402031870
:1000E000A0200800280824020318DA2008002A08A3
:1000F00024020318142108002C08240203184E219E
:1001000008002E0824020318882108003908240258
:100110000318C22108003B0824020318FC21080030
:100120003D082402031836220800BF00BE01BE0BA2
:100130009728BF0B97280800BE00BE0B9D2808001B
:10014000D922122370229F22BC229F22BC229F22EE
:10015000BC229F22BC22BC22BC229F22BC22BC22E9
:10016000BC229F22BC229F22BC229F22BC229F2213
:10017000BC229F22BC22BC22BC229F22BC22BC22C9
:10018000BC229F22BC229F22BC229F22BC22BC22D6
:10019000BC229F22BC22BC22BC229F22BC22BC22A9
:1001A000BC229F22BC22BC22BC229F22BC22203027
:1001B00095200800D922122370229F22BC229F2260
:1001C000BC229F22BC22BC22BC229F22BC22BC2279
:1001D000BC229F22BC229F22BC22BC22BC229F2286
:1001E000BC229F22BC229F22BC229F22BC22BC2276
:1001F000BC229F22BC229F22BC229F22BC22BC2266
:10020000BC229F22BC229F22BC22BC22BC229F2255
:10021000BC22BC22BC229F22BC22BC22BC229F2228
:10022000BC22203095200800D922122370229F2260
:10023000BC229F22BC22BC22BC229F22BC22BC2208
:10024000BC229F22BC229F22BC229F22BC22BC2215
:10025000BC229F22BC229F22BC229F22BC229F2222
:10026000BC229F22BC229F22BC22BC22BC229F22F5
:10027000BC22BC22BC229F22BC229F22BC22BC22C8
:10028000BC229F22BC22BC22BC229F22BC22BC22B8
:10029000BC229F22BC22203095200800D9221223A4
:1002A00070229F22BC229F22BC229F22BC22BC2201
:1002B000BC229F22BC229F22BC22BC22BC229F22A5
:1002C000BC229F22BC229F22BC229F22BC229F22B2
:1002D000BC22BC22BC229F22BC229F22BC22BC2268
:1002E000BC229F22BC229F22BC22BC22BC229F2275
:1002F000BC22BC22BC229F22BC22BC22BC229F2248
:10030000BC22BC22BC229F22BC22203095200800A7
:10031000D922122370229F22BC229F22BC22BC22FF
:10032000BC229F22BC22BC22BC229F22BC229F2234
:10033000BC22BC22BC229F22BC229F22BC229F2224
:10034000BC229F22BC229F22BC229F22BC229F2231
:10035000BC22BC22BC229F22BC229F22BC22BC22E7
:10036000BC229F22BC22BC22BC229F22BC22BC22D7
:10037000BC229F22BC22BC22BC229F22BC22203055
:1003800095200800D922122370229F22BC229F228E
:10039000BC22BC22BC229F22BC229F22BC22BC22A7
:1003A000BC229F22BC229F22BC22BC22BC229F22B4
:1003B000BC229F22BC229F22BC229F22BC229F22C1
:1003C000BC22BC22BC229F22BC229F22BC22BC2277
:1003D000BC229F22BC229F22BC22BC22BC229F2284
:1003E000BC22BC22BC229F22BC22BC22BC229F2257
:1003F000BC22203095200800D922122370229F228F
:10040000BC229F22BC229F22BC229F22BC22BC2253
:10041000BC229F22BC229F22BC22BC22BC229F2243
:10042000BC229F22BC229F22BC229F22BC22BC2233
:10043000BC229F22BC22BC22BC229F22BC229F2223
:10044000BC22BC22BC229F22BC229F22BC22BC22F6
:10045000BC229F22BC22BC22BC229F22BC22BC22E6
:10046000BC229F22BC22203095200800D9221223D2
:1004700070229F22BC229F22BC22BC22BC229F222F
:10048000BC229F22BC22BC22BC229F22BC22BC22B6
:10049000BC229F22BC229F22BC229F22BC229F22E0
:1004A000BC229F22BC229F22BC22BC22BC229F22B3
:1004B000BC229F22BC229F22BC22BC22BC229F22A3
:1004C000BC22BC22BC229F22BC22BC22BC229F2276
:1004D000BC22BC22BC229F22BC22203095200800D6
:1004E0009F22BC22BC22BC229F22BC229F22BC2273
:1004F0009F22BC22BC22BC229F22BC22BC22BC2246
:100500009F22BC22BC22BC229F22BC229F22BC2252
:10051000BC22BC229F22BC229F22BC22BC22BC2225
:100520009F22BC22BC22BC229F22BC229F22BC2232
:100530009F22BC229F22BC22BC22BC220800143075
:10054000B2000515000000000000000000000000DF
:100550000000000000000000000000000511000085
:10056000000000000000000000000000000000008B
:100570000000B20BA12A08001430B20005110000DF
:10058000000000000000000000000000000000006B
:100590000000000000000511000000000000000045
:1005A000000000000000000000000000B20BBE2AA6
:1005B0000800C830B200051500000000000000006F
:1005C000000000000000000000000000000000002B
:1005D0000511000000000000000000000000000005
:1005E000000000000000B20BDB2A8430B2000515C9
:1005F00000000000000000000000000000000000FB
:1006000000000000000000000511000000000000D4
:100610000000000000000000000000000000B20B1D
:10062000F72A0800D730B2000630B300B20B162B01
:06063000B30B162B0800BD
:040636000034003458
:02400E0014009C
:00000001FF
