:020000040000FA
:10000000F92FA32F7F2F832F872F8B2F8F2F932FA6
:06001000972F9B2F9F2F8C
:100EFC00A82F603083128600B82FDA308312860058
:100F0C00B82FF23083128600B82F66308312860019
:100F1C00B82FB63083128600B82FBE3083128600ED
:100F2C00B82FE03083128600B82FFE308312860073
:100F3C00B82FF63083128600B82FFC30831286004F
:100F4C00B82FB82F7108003A0319AD2FB82F7008BD
:100F5C0084000A3004020318B82F00308A000130D4
:100F6C00040782000800831685018312850183160D
:100F7C00860183128601073083168100A0308B0016
:100F8C0083128101F501F601003076020530031958
:100F9C007502031CD22FD32FD52FC82FC82F76083C
:100FAC00F1007508F0007E270330F4000830F300E0
:100FBC007730F200F20BE02FF30BE02FF40BE02F65
:100FCC000130F5070318F60A0030F60700307602F8
:100FDC00053003197502031CF42FF52FD52FC82FDC
:100FEC00C82FC82F0028F701F801F901FA01FB01FD
:040FFC008301B92F85
:02400E00BADF17
:00000001FF
