:020000040000FA
:02000000FA2FD5
:100A02008312031385018601F801F901080083129C
:100A12000313051406160617861785140800831299
:100A2200031305174E30F100EB30F000F00B172DD9
:100A3200F10B172D831203130513080083120313FE
:100A4200061786170230F0007008F9008230F100B4
:100A5200DD30F000F00B2B2DF10B2B2D302D08008B
:100A620080308312031385008601F801F901FA012F
:100A72000330F2008A30F1005530F000F00B3F2DC8
:100A8200F10B3F2DF20B3F2D462D0800831203136D
:100A9200061605148230F400DD30F300F30B4F2DFF
:100AA200F40B4F2D542D83120313861C592D5A2DEE
:100AB2006D2D061D5D2D5E2D692D10254E30F40025
:100AC200EB30F300F30B632DF40B632D1025702D27
:100AD2001025A225702D702DF901F90A702D08003C
:100AE200952D85170230F2005230F100A630F00049
:100AF200F00B792DF10B792DF20B792D0000831279
:100B020003138513D030F100C930F000F00B872DAC
:100B1200F10B872D8C2D83120313861C912D922DA0
:100B2200952D0825952D952D83120313061D9A2DBB
:100B32009B2DA12D061C9E2D9F2D722DA12DA12D29
:100B420008008312031306120613051086170630D7
:100B5200F2001330F100AD30F000F00BAE2DF10BCE
:100B6200AE2DF20BAE2DB52D831203138616073070
:100B7200F2006530F1005630F000F00BBE2DF10BA3
:100B8200BE2DF20BBE2D0000FB010B307B02031CBD
:100B9200CB2DCC2DCE2DF22DF22D0230F200453090
:100BA200F100A930F000F00BD42DF10BD42DF20B93
:100BB200D42DDB2D83120313061DE02DE12DE82D2C
:100BC2000B30F0007008FB00F801F80AE82D013044
:100BD200F0007008FB070B307B02031CF12DF22D95
:100BE200CE2D8312031386128230F100DD30F00025
:100BF200F00BF92DF10BF92DFE2D831203130617BD
:100C02008230F100DD30F000F00B052EF10B052EE5
:100C12000A2E8312031306160514FA010330F2009A
:100C22008A30F1005530F000F00B152EF10B152E25
:100C3200F20B152E1C2E831203130619212E222EBF
:100C4200272E0613061205108613272E08000C30D5
:100C52008316031385000730860083120313850170
:100C62008601803083160313810007308312031339
:100C72009F0085175B2E5B2E8230F600DD30F5007B
:100C8200F50B412EF60B412E462E83120313061846
:100C92004B2E4C2E4E2E01254E2E83120313061878
:100CA200532E542E5B2E061D572E582E5B2E712569
:100CB2005B2E5B2E83120313061C602E612E3D2ECB
:100CC2008517061D652E662E6E2E8514861C6A2ECD
:100CD2006B2ED12E0825D12ED12E8510D12ED12EBC
:100CE200861C742E752EA42E051D782E792EA42E08
:100CF20006197C2E7D2EA42E8230F600DD30F50002
:100D0200F50B812EF60B812E862E83120313861C81
:100D12008B2E8C2EA42E051D8F2E902EA42E851D7B
:100D2200932E942E9F2E10254E30F600EB30F500B8
:100D3200F50B992EF60B992E1025A42E1025A2251F
:100D4200A42EA42EA42E83120313861CA92EAA2E2F
:100D5200C82E051DAD2EAE2EC82E061DB12EB22EEA
:100D6200C82E8230F600DD30F500F50BB62EF60BFC
:100D7200B62EBB2E83120313861CC02EC12EC82E84
:100D8200051DC42EC52EC82E3125C82EC82E83128D
:100D92000313061DCD2ECE2ED12E8514D12ED12E8B
:100DA200831203138618D62ED72E712EF22FF22F0E
:100DB2008230F600DD30F500F50BDD2EF60BDD2E70
:100DC200E22E7908031DE62EE72E1A2F8312031353
:100DD2008618EC2EED2E1A2F0619F02EF12E1A2F50
:100DE2000230F7000430F600BA30F500F50BF72EAA
:100DF200F60BF72EF70BF72E000083120313051DD7
:100E0200032F042F112F0330F7000830F60077303C
:100E1200F500F50B0A2FF60B0A2FF70B0A2F112FED
:100E2200831203130519162F172F992F4725992F70
:100E3200992F7903031D1E2F1F2F522F8312031385
:100E42008618242F252F522F0619282F292F522F8B
:100E52000230F7000430F600BA30F500F50B2F2F00
:100E6200F60B2F2FF70B2F2F000083120313051DF4
:100E72003B2F3C2F492F0330F7000830F600773024
:100E8200F500F50B422FF60B422FF70B422F492F9D
:100E92008312031305194E2F4F2F992F1F25992FB8
:100EA200992F02307906031D572F582F992F83123D
:100EB200031386185D2F5E2F992F0619612F622F5B
:100EC200992F0230F7000430F600BA30F500F50B26
:100ED200682FF60B682FF70B682F0000831203139D
:100EE200051D742F752F822F0330F7000830F6008E
:100EF2007730F500F50B7B2FF60B7B2FF70B7B2F53
:100F0200822F831203130519872F882F992F803080
:100F120085008601F9018230F600DD30F500F50B1F
:100F2200902FF60B902F952F992F992F992F992F5C
:100F320083120313051D9E2F9F2FF22FEA2FEA2FF4
:100F42000230F7004530F600A930F500F50BA72F67
:100F5200F60BA72FF70BA72FAE2F0130F500750860
:100F6200FA0714307A02031CB72FB82FD62F831238
:100F720003130619BD2FBE2FD62F0519C12FC22F5D
:100F8200D62FFA01851DC62FC72FD22F10254E301E
:100F9200F600EB30F500F50BCC2FF60BCC2F10251D
:100FA200D62F1025A225D62FD62F14307A02031C55
:100FB200DB2FDC2FEA2F83120313061DE12FE22F12
:100FC200EA2F0519E52FE62FEA2FFA013125EA2F3C
:100FD200EA2F831203130519EF2FF02FA12FF22FFF
:100FE200F22F0519F52FF62FD92E5B2E5B2E5B2ED5
:0E0FF2000028F801F901FA01FB018301282E05
:02400E0018DEBA
:00000001FF
