:020000040000FA
:020000001B28BB
:040002000034003492
:08000800DD30B1008230B200CE
:10001000B10B0828B20B08280000000005190800E1
:100020008B108512051D0516051D112805190512D1
:1000300085184428112883128501073099008316FA
:100040008514051585158512051281130113951464
:1000500015151514831283160030900083128B1728
:100060000B130B168B128B111F149F111F1183166C
:100070009F011F161F1483121F139F134730AD00DB
:100080002730AE008130AB00851D7120051D112881
:1000900085185428E220851D712085185428051DD7
:1000A0001120572064204B288512051244289F14E4
:1000B0009F1858281E08AA0083161E088312A9003C
:1000C000A601A60B612808002E082A02031CC920DD
:1000D0002D082A020318B5202B082A020318A12094
:1000E00008009F149F1872281E08AA0083161E0875
:1000F0008312A900A601A60B7B282D082A02031C47
:100100000800851605164F30B1001930B2004D3089
:10011000B300B10B8928B20B8928B30B89280000E2
:1001200000008512051208009F149F1895281E08CC
:10013000AA0083161E088312A900A601A60B9E28FA
:1001400008005530B1008A30B2000330B300B10B63
:10015000A728B20BA728B30BA72800000000942003
:100160002B082A020318851608005530B1008A3082
:10017000B2000330B300B10BBB28B20BBB28B30BEA
:10018000BB280000000094202D082A020318051641
:100190000800051E0800DF30B100BB30B20033306C
:1001A000B300B10BD128B20BD128B30BD12800007A
:1001B000000094202E082A02031CDF20080085126C
:1001C00005120800BE30B1004B30B2001530B3004C
:1001D000B10BE828B20BE828B30BE82800000800B0
:02400E00943FDD
:00000001FF
