:020000040000FA
:1000000083120730990085018316FF23900080300A
:1000100090008030810000309F0085010510851020
:1000200005158515851683120030A3001A20851E3C
:100030002820162885190800A92085190800051907
:1000400008003020051908009F20382005100800FE
:10005000A920851A0800231C5C20231834200800DE
:100060008514602085100800851481208510080003
:100070000514922005190800922005190800922005
:10008000051908009220051908009220051908009A
:1000900092200519080092200519080092200519E0
:1000A00008009220051908009220051908009220E6
:1000B000051908009220080005147020051008009A
:1000C0000030A3006630A000C230A1001230A200B0
:1000D000A00B6828A10B6828A20B68280000080064
:1000E0000130A3006630A000C230A1001530A2008C
:1000F000A00B7828A10B7828A20B78280000051007
:1001000016280030A3006630A000C230A1001530D0
:10011000A200A00B8928A10B8928A20B8928000026
:1001200085101628C830A0003C30A1000630A2007F
:10013000A00B9828A10B9828A20B98280800EE3055
:10014000A0004130A100A00BA328A10BA328000010
:100150000800EE30A0004130A100A00BAD28A10B9B
:06016000AD2800000800BC
:04016600003400342D
:02400E0054005C
:00000001FF
