:020000040000FA
:100000000128831285010730990083160511051612
:100010008316FF23900083128B131F149F151F1547
:1000200083169F011F169F1583121F139F13FC3009
:10003000A500E430A600E430A700CF30A800CF3000
:10004000C000C530C100C530A900BE30AA00BE3016
:10005000AB00AE30AC00AE30AD009F30AE009F3094
:10006000B8009230B9009230BA004430BB0044303E
:10007000BC000130BD003E2050203B289F149F183B
:100080003F281E08A40083161E088312A300A53073
:10009000B2003330B300B20B4B28B30B4B2808002F
:1000A00025082402031C752027082402031C7A203B
:1000B00040082402031C7F2029082402031C8420FA
:1000C0002B082402031C89202D082402031C8E20E7
:1000D00038082402031C93203A082402031C9820A9
:1000E0003C082402031C9D20080026082402031853
:1000F000D3200800280824020318A920080041087A
:1001000024020318B72008002A08240203182E210D
:1001100008002C08240203184E2108002E0824028F
:1001200003185E2108003908240203186E21080014
:100130003B08240203187E2108003D08240203180E
:100140008E210800BF00BE01BE0BA428BF0BA4284F
:10015000080058223E20270824020318E320F52037
:1001600058223E2027082402031CB1283B2858228D
:100170003E204008240203180C211E2158223E2054
:1001800040082402031CBF283B2858223E2029088F
:10019000240203182E213E2158223E202908240241
:1001A000031CCD283B2816224F229E21D121D72186
:1001B000CF21D721D321D721D721D721DC21F92164
:1001C000C830A220080016224F229E21CF21D12123
:1001D000D721D721D721D521D721D721DC21F9213A
:1001E000DC21F921C830A2203B2816224F22D7213A
:1001F000D321D721D721D521D521D721D121D32151
:10020000D721D521D121D321D521D721D721DC2137
:10021000F921C830A220080016224F229E21D321A6
:10022000D321D321D721D521D721D521D721DC2115
:10023000F921DC21F921C830A2203B2816224F22C7
:100240009E21D321D721D721CF21D121D721D72139
:10025000D721DC21F921C830A220080016224F2224
:100260009E21D521D721D321CD21D721D521D72119
:10027000D721DC21F921C830A220080016224F2204
:100280009E21D521D521D721CD21D321D721D721F9
:10029000D721DC21F921C830A220080016224F22E4
:1002A0009E21D321D521CF21D521D521D721D721D9
:1002B000D721DC21F921C830A220080016224F22C4
:1002C0009E21D521D721D521CB21D521D721D721B9
:1002D000D721DC21F921C830A220080016224F22A4
:1002E0009E21D521D521D521CF21D521D521D72199
:1002F000D721DC21F921C830A220080016224F2284
:100300009E21D121D521D121D721D521D521D72178
:10031000D721DC21F921C830A220080016224F2263
:100320009E21D521D521D721CD21D321D721D72158
:10033000D721DC21F921C830A2200800D721D32100
:10034000D721D721D521D521D721D12108001622A7
:100350004F229E21D521D721D721D521D321D121AB
:10036000D521D721DC21F921DC21F921C830A220B7
:10037000080016224F229E21D521D321D721CF213B
:10038000D721D321D721D721DC21F921C830A220C0
:100390000800DC21F921DC21F921DC21F921DC2113
:1003A000F921DC21F921DC21F921DC21F921DC21F1
:1003B000F921F921F92108001330B20005150000D8
:1003C000000000000000000000000000000000002D
:1003D0000000000000000511000000000000000007
:1003E000000000000000000000000000B20BDE2949
:1003F00008001330B20005110000000000000000EA
:1004000000000000000000000000000000000000EC
:1004100005110000000000000000000000000000C6
:10042000000000000000B20BFB290800B930B20048
:1004300005150000000000000000000000000000A2
:100440000000000000000000000005110000000096
:10045000000000000000000000000000000000009C
:10046000B20B182A8430B20005150000000000000D
:10047000000000000000000000000000000000007C
:100480000000051100000000000000000000000056
:100490000000000000000000B20B342A0800AA305F
:1004A000B2000630B300B20B532AB30B532A080034
:1004B000A930B2004530B3000230B400B20B5E2A5E
:0E04C000B30B5E2AB40B5E2A00000000080099
:0204CE000034F8
:0204D0000034F6
:02400E0054005C
:00000001FF
