:020000040000FA
:02000000F52BDE
:10037600831205142C08A1002B08A0002830A20027
:100386000030A3001B2283122108A7002008A60024
:10039600F821831205100800831285142C08A10089
:1003A6002B08A0002830A2000030A3001B228312D5
:1003B6002108A7002008A600F8218312851008004E
:1003C6008312220883169B008312200883169A0044
:1003D6001C1555309D00AA309D009C14F2299C18CE
:1003E600F529F629F2291C1108008312A901AA0190
:1003F6000B2AC7308312A800002AA80BFF29032A5C
:10040600042A01308312A9070318AA0A0030AA0792
:100416002708803AA8002A08803A2802031D152AD0
:10042600290826020318182A192AFC291A2A08005C
:100436008312A401A5011F2A201C222A232A292A65
:100446002208A4070318A50A2308A50701300310EC
:10045600A20DA30DFF3E031D2A2A01300310A10C95
:10046600A00CFF3E031D312A20082104031D3C2A4F
:100476003D2A1F2A3E2A2508A1002408A000432A57
:100486000800023083169B001C14492A1C184C2AAB
:100496004D2A492A4E2A14301A02031C532A542A7A
:1004A6005C2A1A088312A000A1012008B2002108C4
:1004B600B30082308312A100DD30A000A00B612AB8
:1004C600A10B612A662A013083169B001C146B2A35
:1004D6001C186E2A6F2A6B2A702A14301A02031C03
:1004E600752A762A7E2A1A088312A000A1012008FE
:1004F600B0002108B10082308312A100DD30A000D7
:10050600A00B832AA10B832A882A103083169B000E
:100516001C148D2A1C18902A912A8D2A922A323070
:100526001A060319972A982A9F2A3C301A06031D91
:100536009D2A9E2AA52A9F2A1A088312A00020080F
:10054600B600A52A08008312831285010730990098
:1005560083160C3083168500803081009F0183123C
:1005660083124422B62A8312B401B5017D2B413091
:10057600AE00EE30AD00AD0BBE2AAE0BBE2A0000BB
:10058600772B82308312AE00DD30AD00AD0BC92A69
:10059600AE0BC92ACE2A83120519D22AD32AFA2AE1
:1005A600003035020230031934020318DB2ADC2A34
:1005B600FA2A3C303606031DE12AE22AFA2A3208D4
:1005C600013EB20033080318013E003EB300330873
:1005D600A1003208A0000230A2000030A300E321EF
:1005E60001308312AB000030AC00CF21262B051959
:1005F600FD2AFE2A262B003035020230031934026A
:100606000318062B072B262B32303606031D0C2B20
:100616000D2B262B3008013EB00031080318013E91
:10062600003EB1003108A1003008A0000130A20050
:100636000030A300E32101308312AB000030AC0090
:10064600BB21262B262B01308312B4070318B50ACB
:100656000030B50700303502643003193402031C3C
:10066600352B362B772B382B382B05193B2B3C2B70
:10067600382B3D2B1630B2000030B3001630B000D8
:100686000030B1003230AD002D08B6003308A100AD
:100696003208A0000230A2000030A300E32183123A
:1006A6003108A1003008A0000130A2000030A300EC
:1006B600E32183123608AD00AE012D08A0002E08F6
:1006C600A1001030A2000030A300E32183123308FA
:1006D600AC003208AB00CF2183123108AC003008E1
:1006E600AB00BB21772B772B831205197B2B7C2B39
:1006F600C42A7D2B0519802B812BBA2A851D842BB4
:10070600852BBB2B32303606031D8A2B8B2BBB2B3E
:100716000630AF001330AE00AD30AD00AD0B912BFF
:10072600AE0B912BAF0B912B982B8312851D9C2B17
:100736009D2BB62A32303606031DA22BA32BB62AD2
:100746003308AC003208AB00CF213C308312AD0039
:100756002D08B6003608AD00AE012D08A0002E0803
:10076600A1001030A2000030A300E321B62AB62A69
:100776008519BE2BBF2BB62A3C303606031DC42B6B
:10078600C52BB62A8230AE00DD30AD00AD0BC92BCD
:10079600AE0BC92BCE2B83128519D22BD32BB62A9F
:1007A6003C303606031DD82BD92BB62A3108AC00AF
:1007B6003008AB00BB2132308312AD002D08B600E5
:1007C6003608AD00AE012D08A0002E08A10010309D
:1007D600A2000030A300E321B62AB62AB62AB62A1A
:1007E600B62A00288312B001B101B201B301B401E7
:0807F600B501B6018301A62A3A
:02400E0014306C
:00000001FF
