:020000040000FA
:02000000F12BE2
:1000BA0050345034B53483121F142730A700F5305A
:1000CA00A600A60B6628A70B662883129F146D2824
:1000DA009F18702871286D2872281E08A600A7018B
:1000EA002608A0002708A1001F10080083121F1469
:1000FA000430A700E430A600A60B8128A70B8128AC
:10010A00000042308312A600A60B89280000831241
:10011A009F148F289F18922893288F2894281E08A6
:10012A00A600A7012608A0002708A1001F100800A2
:10013A008312A201A3010030230213300319220201
:10014A00031CA828A928AB28C128C12805150330F3
:10015A00A600A60BAE28831205110130A2070318C8
:10016A00A30A0030A3070030230213300319220226
:10017A00031CC028C128AB2805119530A600A60B80
:10018A00C428C72808008312A201A3010030230251
:10019A00133003192202031CD328D428D628EC28AA
:1001AA00EC2805150330A600A60BD92883120511E1
:1001BA000130A2070318A30A0030A3070030230264
:1001CA00133003192202031CEB28EC28D628051148
:1001DA00EB30A600F028F128A60BEF28F428F52822
:1001EA0008008312A201A301013023022C30031953
:1001FA002202031C0129022904291A291A29051590
:10020A000330A600A60B0729831205110130A207A5
:10021A000318A30A0030A307013023022C30031964
:10022A002202031C19291A29042905110630A700DC
:10023A00D730A600A60B1F29A70B1F290800F620F6
:10024A0008308312A8002808A40052290130A40209
:10025A000130A800240A33290310A80DFF3E031D0C
:10026A00312928082D05031D3B293C293E299D20BB
:10027A00522901308312A800240A45290310A80D27
:10028A00FF3E031D432928082D0503194D294E2930
:10029A005229C82052295229522983122408031D9F
:1002AA00572958292B29AD090830A8002808A40085
:1002BA0085290130A4020130A800240A6629031006
:1002CA00A80DFF3E031D642928082D05031D6E296C
:1002DA006F2971299D20852901308312A800240ADB
:1002EA0078290310A80DFF3E031D762928082D053D
:1002FA000319802981298529C820852985298529E5
:10030A0083122408031D8A298B295E29AD09083026
:10031A00A8002808A400B8290130A4020130A800C6
:10032A00240A99290310A80DFF3E031D97292808BE
:10033A002C05031DA129A229A4299D20B829013031
:10034A008312A800240AAB290310A80DFF3E031D3F
:10035A00A92928082C050319B329B429B829C820C2
:10036A00B829B829B82983122408031DBD29BE2932
:10037A009129AC090830A8002808A400EB2901300B
:10038A00A4020130A800240ACC290310A80DFF3EBC
:10039A00031DCA2928082C05031DD429D529D729C4
:1003AA009D20EB2901308312A800240ADE290310BC
:1003BA00A80DFF3E031DDC2928082C050319E62990
:1003CA00E729EB29C820EB29EB29EB29831224081A
:1003DA00031DF029F129C429F2299D208312AC09B1
:1003EA00080083128312073099008316803083161F
:1003FA00900010308500831283120C309F008B010D
:10040A008316683083169F0083308100831283121B
:10041A00FF30A9002908AD00FF30A9002908AC0067
:10042A002421172A6020003083122102FC3003198C
:10043A0020020318212A222A4A2A00302102EC30FB
:10044A0003192002031C2A2A2B2A4A2A7B2000305D
:10045A0083122102FC30031920020318352A362A96
:10046A004A2A00302102EC3003192002031C3E2ADA
:10047A003F2A4A2AB530A9002908AD008230A900CE
:10048A002908AC0024214A2A4A2A00308312210270
:10049A00EB30031920020318532A542A902A0030F9
:1004AA002102D33003192002031C5C2A5D2A902AF8
:1004BA007B20003083122102EB300319200203183B
:1004CA00672A682A902A00302102D33003192002B1
:1004DA00031C702A712A902AB530A9002908AD0098
:1004EA009830A9002908AC00242126308312AA00DA
:1004FA00A830A900A90B7F2AAA0B7F2A0000F53091
:10050A008312A9002908AD000C30A9002908AC0003
:10051A002421902A902A003083122102D230031912
:10052A0020020318992A9A2AC22A00302102C930C5
:10053A0003192002031CA22AA32AC22A7B20003004
:10054A0083122102D230031920020318AD2AAE2ADF
:10055A00C22A00302102C93003192002031CB62A1C
:10056A00B72AC22AB530A9002908AD001A30A90055
:10057A002908AC002421C22AC22A0030831221028F
:10058A00C830031920020318CB2ACC2AF42A0030D7
:10059A002102BE3003192002031CD42AD52AF42AC8
:1005AA007B20003083122102C8300319200203186D
:1005BA00DF2AE02AF42A00302102BE300319200281
:1005CA00031CE82AE92AF42AB530A9002908AD0053
:1005DA005830A9002908AC002421F42AF42A003052
:1005EA0083122102BD30031920020318FD2AFE2AB4
:1005FA00262B00302102B03003192002031C062BDF
:10060A00072B262B7B20003083122102BD300319D1
:10061A0020020318112B122B262B00302102B03096
:10062A0003192002031C1A2B1B2B262BB530A900F9
:10063A002908AD004230A9002908AC002421262B44
:10064A00262B003083122102AF300319200203182F
:10065A002F2B302B582B00302102A43003192002F3
:10066A00031C382B392B582B7B2000308312210294
:10067A00AF30031920020318432B442B582B0030A8
:10068A002102A43003192002031C4C2B4D2B582B9A
:10069A00B530A9002908AD00C230A9002908AC006C
:1006AA002421582B582B003083122102A33003191E
:1006BA0020020318612B622B8A2B0030210295300D
:1006CA0003192002031C6A2B6B2B8A2B7B20003018
:1006DA0083122102A330031920020318752B762BEB
:1006EA008A2B00302102953003192002031C7E2B2D
:1006FA007F2B8A2BB530A9002908AD00D030A9007C
:10070A002908AC0024218A2B8A2B0030831221026B
:10071A009430031920020318932B942BBC2B00301E
:10072A002102473003192002031C9C2B9D2BBC2B52
:10073A007B2000308312210294300319200203180F
:10074A00A72BA82BBC2B003021024730031920020B
:10075A00031CB02BB12BBC2BB530A9002908AD0066
:10076A005030A9002908AC002421BC2BBC2B003036
:10077A00831221024630031920020318C52BC62B07
:10078A00172A00302102023003192002031CCE2B43
:10079A00CF2B172A7B2000308312210246300319FF
:1007AA0020020318D92BDA2B172A00302102023033
:1007BA0003192002031CE22BE32B172AB530A900E8
:1007CA002908AD000230A9002908AC002421172A03
:1007DA00172A172A172A00285D20AB005E20AC00D2
:1007EA005F20AD00A001A101A201A301A401A501FE
:0407FA008301F62958
:02400E0014306C
:00000001FF
