:020000040000FA
:100000000128831285010730990083160511051612
:1000100083160030900083128B131F149F151F1539
:1000200083169F011F169F1583121F139F13FC3009
:10003000A500E430A600E430A700CF30A800CF3000
:10004000C000C530C100C530A900BE30AA00BE3016
:10005000AB00AE30AC00AE30AD009F30AE009F3094
:10006000B8009230B9009230BA004430BB0044303E
:10007000BC000130BD003E2051203B289F149F183A
:100080003F281E08A40083161E088312A3006C30AC
:10009000B2004830B300B20B4B28B30B4B28000022
:1000A000080025082402031C762027082402031CCC
:1000B0007B2040082402031C802029082402031C02
:1000C00085202B082402031C8A202D082402031CEF
:1000D0008F2038082402031C94203A082402031CB1
:1000E00099203C082402031C9E20080026082402B4
:1000F0000318AA200800280824020318E420080096
:100100004108240203181E2108002A0824020318AB
:10011000582108002C0824020318922108002E08F8
:1001200024020318CC2108003908240203180622EF
:1001300008003B0824020318402208003D0824025E
:1001400003187A220800BF00BE01BE0BA528BF0B12
:10015000A528080056238F23B4221C2339231C23EF
:1001600039231C2339231C233923392339231C2306
:100170003923392339231C2339231C2339231C23F6
:1001800039231C2339231C233923392339231C23E6
:100190003923392339231C2339231C2339231C23D6
:1001A0003923392339231C233923392339231C23A9
:1001B0003923392339231C233923392339231C2399
:1001C00039232030A320080056238F23B4221C2378
:1001D00039231C2339231C2339231C2339231C23B3
:1001E0003923392339231C2339231C2339231C2386
:1001F00039231C233923392339231C233923392359
:1002000039231C233923392339231C233923392348
:1002100039231C2339231C233923392339231C2355
:100220003923392339231C233923392339231C2328
:1002300039231C2339232030A320080056238F2381
:10024000B4221C2339231C2339231C2339233923AB
:1002500039231C2339231C2339231C233923392315
:1002600039231C2339231C2339231C233923392305
:1002700039231C233923392339231C2339231C23F5
:100280003923392339231C233923392339231C23C8
:1002900039231C233923392339231C2339233923B8
:1002A00039231C2339231C2339232030A3200800A1
:1002B00056238F23B4221C2339231C2339233923AB
:1002C00039231C233923392339231C2339231C23A5
:1002D00039231C233923392339231C2339231C2395
:1002E00039231C2339231C2339231C2339231C23A2
:1002F0003923392339231C233923392339231C2358
:1003000039231C233923392339231C233923392347
:1003100039231C233923392339231C233923203043
:10032000A320080056238F23B4221C2339231C2327
:1003300039231C233923392339231C2339231C2334
:100340003923392339231C2339231C2339231C2324
:1003500039231C2339231C233923392339231C2314
:1003600039231C233923392339231C2339231C2304
:100370003923392339231C233923392339231C23D7
:100380003923392339231C233923392339231C23C7
:1003900039232030A320080056238F23B4221C23A6
:1003A00039231C233923392339231C2339233923A7
:1003B00039231C2339231C233923392339231C23B4
:1003C00039231C2339231C2339231C2339231C23C1
:1003D00039231C2339231C233923392339231C2394
:1003E00039231C233923392339231C233923392367
:1003F00039231C233923392339231C233923392357
:1004000039231C2339232030A320080056238F23AF
:10041000B4221C2339231C233923392339231C23D9
:1004200039231C233923392339231C2339231C2343
:100430003923392339231C2339231C2339231C2333
:1004400039231C2339231C233923392339231C2323
:1004500039231C233923392339231C2339231C2313
:100460003923392339231C233923392339231C23E6
:100470003923392339231C2339232030A3200800B2
:1004800056238F23B4221C2339231C2339231C23F6
:1004900039231C233923392339231C2339231C23D3
:1004A0003923392339231C2339231C2339231C23C3
:1004B00039231C233923392339231C233923392396
:1004C00039231C2339231C233923392339231C23A3
:1004D00039231C233923392339231C233923392376
:1004E00039231C233923392339231C233923203072
:1004F000A320080056238F23B4221C2339231C2356
:100500003923392339231C2339231C233923392345
:1005100039231C233923392339231C2339231C2352
:1005200039231C2339231C2339231C2339231C235F
:100530003923392339231C2339231C2339231C2332
:100540003923392339231C233923392339231C2305
:100550003923392339231C233923392339231C23F5
:1005600039232030A32008001C23392339233923C1
:100570001C2339231C2339231C23392339233923F2
:100580001C233923392339231C23392339233923C5
:100590001C2339231C233923392339231C233923D2
:1005A0001C233923392339231C23392339233923A5
:1005B0001C2339231C2339231C2339231C233923CF
:1005C00039233923080056238F23B4221C233923CF
:1005D0001C233923392339231C2339233923392375
:1005E0001C233923392339231C2339231C23392382
:1005F000392339231C2339231C2339231C23392372
:10060000392339231C2339231C2339231C23392361
:100610001C233923392339231C2339231C23392351
:10062000392339231C233923392339231C23392324
:100630001C2339232030A3201330B20005150000FD
:1006400000000000000000000000000000000000AA
:100650000000000000000511000000000000000084
:10066000000000000000000000000000B20B1E2B84
:1006700008001330B2000511000000000000000067
:10068000000000000000000000000000000000006A
:100690000511000000000000000000000000000044
:1006A000000000000000B20B3B2B0800B930B20084
:1006B0000515000000000000000000000000000020
:1006C0000000000000000000000005110000000014
:1006D000000000000000000000000000000000001A
:1006E000B20B582B8430B20005150000000000004A
:1006F00000000000000000000000000000000000FA
:1007000000000511000000000000000000000000D3
:100710000000000000000000B20B742B0800AA309B
:10072000B2000630B300B20B932BB30B932B08002F
:04073000003400345D
:02400E0014009C
:00000001FF
