:020000040000FA
:100000000128831285010730990083160511051612
:100010008316FF23900083128B131F149F151F1547
:1000200083169F011F169F1583121F139F13FC3009
:10003000A500E430A600E430A700CF30A800CF3000
:10004000C000C530C100C530A900BE30AA00BE3016
:10005000AB00AE30AC00AE30AD009F30AE009F3094
:10006000B8009230B9009230BA004430BB0044303E
:10007000BC000130BD003E2050203B289F149F183B
:100080003F281E08A40083161E088312A300A53073
:10009000B2003330B300B20B4B28B30B4B2808002F
:1000A00025082402031C752027082402031C7A203B
:1000B00040082402031C7F2029082402031C8420FA
:1000C0002B082402031C89202D082402031C8E20E7
:1000D00038082402031C93203A082402031C9820A9
:1000E0003C082402031C9D20080026082402031853
:1000F000D3200800280824020318A920080041087A
:1001000024020318B72008002A08240203182F210C
:1001100008002C08240203184F2108002E0824028E
:1001200003185F2108003908240203186F21080012
:100130003B08240203187F2108003D08240203180D
:100140008F210800BF00BE01BE0BA428BF0BA4284E
:1001500008005A223E20270824020318E520F52033
:100160005A223E2027082402031CB1283B285A2289
:100170003E204008240203180D211F215A223E2050
:1001800040082402031CBF283B285A223E2029088D
:10019000240203182F213F215A223E20290824023D
:1001A000031CCD283B28182251229F21D921D92177
:1001B000D921D921DE21FB21CB21D921D921D92156
:1001C000DE21FB212030A2200800182251229F218D
:1001D000D721D921D721D321D521D721D921D9215F
:1001E000DE21FB212030A2200800BB211822512251
:1001F000D921D921D921D921D721D721D121D7213D
:10020000CF21D921D521D921D921D921D521D92130
:10021000DE21FB212030A2200800182251229F213C
:10022000D921D921D921DE21FB21CB21D921D921E5
:10023000D921D921DE21FB212030A220080018225B
:1002400051229F21D121D921D721D721D921D921AB
:10025000D521D721DE21FB212030A2200800182241
:1002600051229F21D721D721D121D721D721D9218F
:10027000D921D921DE21FB212030A220080018221B
:1002800051229F21D721D721D921CF21D521D92171
:10029000D921D921DE21FB214030A22008001822DB
:1002A00051229F21D921D921D521CF21D921D7214F
:1002B000D921D921DE21FB212030A22008001822DB
:1002C00051229F21D721D521D321D721D921D7212F
:1002D000D921D921DE21FB212030A22008001822BB
:1002E00051229F21D921D721D721D121D721D7210F
:1002F000D921D921DE21FB212030A220080018229B
:1003000051229F21D521D721D321D921D721D721EE
:10031000D921D921DE21FB212030A220080018227A
:1003200051229F21D721D921D921D121D321D921CE
:10033000D921D921DE21FB212030A2200800D7219C
:10034000D921D121D721D521D921D921DE21FB21C4
:100350000800182251229F21D721D921D921D72144
:10036000D521D321D721D921DE21FB21DE21FB217B
:100370002030A2200800182251229F21D721D52108
:10038000D921D121D921D521D921D921DE21FB2182
:100390002030A2200800DE21FB21DE21FB21DE210E
:1003A000FB21DE21FB21DE21FB21DE21FB21DE21E1
:1003B000FB21DE21FB21FB21FB2108001330B200D1
:1003C0000515000000000000000000000000000013
:1003D0000000000000000000000005110000000007
:1003E000000000000000000000000000000000000D
:1003F000B20BE02908001330B20005110000000024
:1004000000000000000000000000000000000000EC
:1004100000000000051100000000000000000000C6
:1004200000000000000000000000B20BFD290800E1
:10043000B930B20005150000000000000000000007
:100440000000000000000000000000000000051196
:10045000000000000000000000000000000000009C
:1004600000000000B20B1A2A8430B200051500000B
:10047000000000000000000000000000000000007C
:100480000000000000000511000000000000000056
:10049000000000000000000000000000B20B362A3F
:1004A0000800AA30B2000630B300B20B552AB30BD5
:1004B000552A0800A930B2004530B3000230B4001C
:1004C000B20B602AB30B602AB40B602A0000000054
:0204D000080022
:0404D20000340034BE
:02400E0054005C
:00000001FF
