:020000040000FA
:10000000831207309900850187018316FF23900032
:1000100000308100850187010710871087160515BC
:10002000851483120030A3001820851C2620142874
:1000300005190800962005190800871A08002E20C7
:10004000871A080087203620071008009620851898
:100050000800231C4420231832200800871448205D
:1000600087100800871469208710080007147A2079
:100070007A207A207A207A207A207A207A207A20B0
:100080007A207A207A2008000714582007100800E8
:100090000030A3006630A000C230A1001230A200E0
:1000A000A00B5028A10B5028A20B502800000800DC
:1000B0000130A3006630A000C230A1001530A200BC
:1000C000A00B6028A10B6028A20B6028000007107D
:1000D00014280030A3006630A000C230A100153003
:1000E000A200A00B7128A10B7128A20B712800009F
:1000F00087101428C830A0003C30A1000630A200B0
:10010000A00B8028A10B8028A20B80280800AD300E
:10011000A0001330A1000630A200A00B8D28A10B77
:100120008D28A20B8D28000000000800EE30A000F2
:100130004130A100A00B9A28A10B9A2800000800CA
:040140000034003453
:02400E0054302C
:00000001FF
