:020000040000FA
:020000002E28A8
:100008007E1480312700131E0A280B282C288031E3
:10001800462080310130F90079082000A0073130EE
:1000280021008C0020008C140530FA000F30F900F4
:10003800F130890B1D28F90B1D28FA0B1D2800002B
:1000480020008C14333021008C00270013122C2838
:100058007E1009002F2880317A208031FB00803102
:100068007B208031FC0080317C208031FD00F00154
:10007800F101F201F301F401F501F601A0017E108E
:1000880020006728313021008C0020008C140530B6
:10009800F8000F30F700F130890B5028F70B502883
:1000A800F80B5028000020008C10333021008C0001
:1000B800FD09FC097D09F7007708F0007C09F700C5
:1000C8007708F1000800F0302100990023008C0126
:1000D80021009D01FF3027009100FE308B00200099
:1000E8008C01333021008C0078282E283234FF34DC
:0200F800FF34D3
:020000040001F9
:04000E0024CEFFDE1F
:00000001FF
