:020000040000FA
:02000000F22BE1
:1002FA005034B534503483121F142730A100F5301E
:10030A00A000A00B8629A10B862983129F149F188F
:10031A008F2990298C291E08A000A1012008A60077
:10032A002108A7001F10080083121F140430A1001F
:10033A00E430A000A00B9F29A10B9F2900004230A6
:10034A008312A000A00BA729000083129F149F18F4
:10035A00AF29B029AC291E08A000A1012008A600D7
:10036A002108A7001F1008008312A801A901003064
:10037A002902143003192802031CC429C529C629D5
:10038A00DD2905150330A000A00BC929CC29831249
:10039A0005110130A8070318A90A0030A90700307F
:1003AA002902143003192802031CDC29DD29C62975
:1003BA000511C730A000A00BE029E3290800831229
:1003CA00A801A90100302902283003192802031CB8
:1003DA00EF29F029F129082A05150330A000A00BFE
:1003EA00F429F729831205110130A8070318A90A6D
:1003FA000030A90700302902283003192802031CFB
:10040A00072A082AF1290511C730A000A00B0B2AD8
:10041A000E2A08008312A801A901003029025030CF
:10042A0003192802031C1A2A1B2A1C2A332A051517
:10043A000330A000A00B1F2A222A831205110130C3
:10044A00A8070318A90A0030A9070030290250306A
:10045A0003192802031C322A332A1C2A0511C73021
:10046A00A000A00B362A392A08008312A4000F2202
:10047A0008308312A3002308AA00662A0130AA02C0
:10048A000130A3002A0A4B2A0310A30DFF3E031DC5
:10049A00492A23082D05031D532A542A562AB9210D
:1004AA00662A0130A3002A0A5C2A0310A30DFF3E24
:1004BA00031D5A2A23082D050319642A652A662A68
:1004CA00E42183122A082402031C6C2A6D2A432A77
:1004DA000830A3002308AA00952A0130AA02013095
:1004EA00A3002A0A7A2A0310A30DFF3E031D782AC5
:1004FA0023082C05031D822A832A852AB921952AD5
:10050A000130A3002A0A8B2A0310A30DFF3E031D04
:10051A00892A23082C050319932A942A952AE42167
:10052A0083122A082102031C9B2A9C2A722A083059
:10053A00A3002308AA00C42A0130AA020130A3009A
:10054A002A0AA92A0310A30DFF3E031DA72A23087E
:10055A005039031DB12AB22AB42AB921C42A01305A
:10056A00A3002A0ABA2A0310A30DFF3E031DB82AC4
:10057A00230850390319C22AC32AC42AE421831240
:10058A002A082202031CCA2ACB2AA12A08001030F0
:10059A00831685000730831299000C309F0078304B
:1005AA0083169F008330810040308B000C17802116
:1005BA00003083122702FD30031926020318E62AA7
:1005CA00E72A142B00302702F53003192602031CF0
:1005DA00EF2AF02A142B9921003083122702FD30CA
:1005EA00031926020318FA2AFB2A142B00302702C1
:1005FA00F53003192602031C032B042B142B62303B
:10060A00A5002508AD004230A5002508AC00A101CF
:10061A00A10A0830A5002508A20000303A220030BD
:10062A0083122702F4300319260203181D2B1E2BEE
:10063A004B2B00302702ED3003192602031C262B10
:10064A00272B4B2B9921003083122702F4300319F0
:10065A0026020318312B322B4B2B00302702ED30A8
:10066A0003192602031C3A2B3B2B4B2B2C30A500DB
:10067A002508AD004230A5002508AC00A101A10A59
:10068A000830A5002508A20000303A220030831263
:10069A002702EC30031926020318542B552B822B00
:1006AA0000302702D03003192602031C5D2B5E2B73
:1006BA00822B9921003083122702EC30031926027B
:1006CA000318682B692B822B00302702D0300319BC
:1006DA002602031C712B722B822B4C30A500250895
:1006EA00AD004230A5002508AC00A101A10A0830DE
:1006FA00A5002508A20000303A2200308312270202
:10070A00CF300319260203188B2B8C2BB92B003000
:10071A002702563003192602031C942B952BB92B5A
:10072A009921003083122702CF30031926020318B9
:10073A009F2BA02BB92B0030270256300319260213
:10074A00031CA82BA92BB92B4830A5002508AD00FE
:10075A004230A5002508AC00A101A10A0830A50075
:10076A002508A20000303A220030831227025530B1
:10077A00031926020318C22BC32BDC2A00302702D6
:10078A00033003192602031CCB2BCC2BDC2A99211C
:10079A000030831227025530031926020318D62B7C
:1007AA00D72BDC2A00302702033003192602031C48
:1007BA00DF2BE02BDC2AC830A5002508AD0042302B
:1007CA00A5002508AC00A101A10A0830A50025084A
:1007DA00A20000303A22DC2A00287D21AB007E21CB
:1007EA00AC007F21AD00A601A701A801A901AA01B9
:0407FA008301CC2A81
:02400E0014306C
:00000001FF
